{
  "_format": "hh-sol-artifact-1",
  "contractName": "MyToken",
  "sourceName": "contracts/NFT.sol",
  "abi": [
    {
      "inputs": [
        {
          "internalType": "string",
          "name": "collectionName",
          "type": "string"
        },
        {
          "internalType": "uint256",
          "name": "percent",
          "type": "uint256"
        }
      ],
      "stateMutability": "nonpayable",
      "type": "constructor"
    },
    {
      "anonymous": false,
      "inputs": [
        {
          "indexed": true,
          "internalType": "address",
          "name": "account",
          "type": "address"
        },
        {
          "indexed": true,
          "internalType": "address",
          "name": "operator",
          "type": "address"
        },
        {
          "indexed": false,
          "internalType": "bool",
          "name": "approved",
          "type": "bool"
        }
      ],
      "name": "ApprovalForAll",
      "type": "event"
    },
    {
      "anonymous": false,
      "inputs": [
        {
          "indexed": true,
          "internalType": "address",
          "name": "previousOwner",
          "type": "address"
        },
        {
          "indexed": true,
          "internalType": "address",
          "name": "newOwner",
          "type": "address"
        }
      ],
      "name": "OwnershipTransferred",
      "type": "event"
    },
    {
      "anonymous": false,
      "inputs": [
        {
          "indexed": true,
          "internalType": "address",
          "name": "operator",
          "type": "address"
        },
        {
          "indexed": true,
          "internalType": "address",
          "name": "from",
          "type": "address"
        },
        {
          "indexed": true,
          "internalType": "address",
          "name": "to",
          "type": "address"
        },
        {
          "indexed": false,
          "internalType": "uint256[]",
          "name": "ids",
          "type": "uint256[]"
        },
        {
          "indexed": false,
          "internalType": "uint256[]",
          "name": "values",
          "type": "uint256[]"
        }
      ],
      "name": "TransferBatch",
      "type": "event"
    },
    {
      "anonymous": false,
      "inputs": [
        {
          "indexed": true,
          "internalType": "address",
          "name": "operator",
          "type": "address"
        },
        {
          "indexed": true,
          "internalType": "address",
          "name": "from",
          "type": "address"
        },
        {
          "indexed": true,
          "internalType": "address",
          "name": "to",
          "type": "address"
        },
        {
          "indexed": false,
          "internalType": "uint256",
          "name": "id",
          "type": "uint256"
        },
        {
          "indexed": false,
          "internalType": "uint256",
          "name": "value",
          "type": "uint256"
        }
      ],
      "name": "TransferSingle",
      "type": "event"
    },
    {
      "anonymous": false,
      "inputs": [
        {
          "indexed": false,
          "internalType": "string",
          "name": "value",
          "type": "string"
        },
        {
          "indexed": true,
          "internalType": "uint256",
          "name": "id",
          "type": "uint256"
        }
      ],
      "name": "URI",
      "type": "event"
    },
    {
      "anonymous": false,
      "inputs": [
        {
          "indexed": false,
          "internalType": "address",
          "name": "minter",
          "type": "address"
        },
        {
          "indexed": false,
          "internalType": "string",
          "name": "tokenName",
          "type": "string"
        },
        {
          "indexed": false,
          "internalType": "uint256",
          "name": "tokenID",
          "type": "uint256"
        },
        {
          "indexed": false,
          "internalType": "uint256",
          "name": "cost",
          "type": "uint256"
        },
        {
          "indexed": false,
          "internalType": "uint256",
          "name": "totalSupply",
          "type": "uint256"
        }
      ],
      "name": "onMint",
      "type": "event"
    },
    {
      "inputs": [],
      "name": "_tokenIds",
      "outputs": [
        {
          "internalType": "uint256",
          "name": "_value",
          "type": "uint256"
        }
      ],
      "stateMutability": "view",
      "type": "function"
    },
    {
      "inputs": [
        {
          "internalType": "address",
          "name": "account",
          "type": "address"
        },
        {
          "internalType": "uint256",
          "name": "id",
          "type": "uint256"
        }
      ],
      "name": "balanceOf",
      "outputs": [
        {
          "internalType": "uint256",
          "name": "",
          "type": "uint256"
        }
      ],
      "stateMutability": "view",
      "type": "function"
    },
    {
      "inputs": [
        {
          "internalType": "address[]",
          "name": "accounts",
          "type": "address[]"
        },
        {
          "internalType": "uint256[]",
          "name": "ids",
          "type": "uint256[]"
        }
      ],
      "name": "balanceOfBatch",
      "outputs": [
        {
          "internalType": "uint256[]",
          "name": "",
          "type": "uint256[]"
        }
      ],
      "stateMutability": "view",
      "type": "function"
    },
    {
      "inputs": [
        {
          "internalType": "uint256",
          "name": "_tokenId",
          "type": "uint256"
        },
        {
          "internalType": "uint256",
          "name": "_amount",
          "type": "uint256"
        }
      ],
      "name": "buyTokens",
      "outputs": [
        {
          "internalType": "bool",
          "name": "",
          "type": "bool"
        }
      ],
      "stateMutability": "payable",
      "type": "function"
    },
    {
      "inputs": [
        {
          "internalType": "address",
          "name": "",
          "type": "address"
        },
        {
          "internalType": "uint256",
          "name": "",
          "type": "uint256"
        }
      ],
      "name": "buyerToTokens",
      "outputs": [
        {
          "internalType": "uint256",
          "name": "id",
          "type": "uint256"
        },
        {
          "components": [
            {
              "internalType": "address",
              "name": "creatorAddress",
              "type": "address"
            },
            {
              "internalType": "string",
              "name": "name",
              "type": "string"
            },
            {
              "internalType": "uint256",
              "name": "registeredDate",
              "type": "uint256"
            },
            {
              "internalType": "bool",
              "name": "registrationStatus",
              "type": "bool"
            }
          ],
          "internalType": "struct MyToken.Creator",
          "name": "creator",
          "type": "tuple"
        },
        {
          "internalType": "string",
          "name": "tokenName",
          "type": "string"
        },
        {
          "internalType": "string",
          "name": "mediaUrl",
          "type": "string"
        },
        {
          "internalType": "uint256",
          "name": "cost",
          "type": "uint256"
        },
        {
          "internalType": "uint256",
          "name": "amountAvailable",
          "type": "uint256"
        },
        {
          "internalType": "uint256",
          "name": "totalSupply",
          "type": "uint256"
        },
        {
          "internalType": "uint256",
          "name": "createdTime",
          "type": "uint256"
        }
      ],
      "stateMutability": "view",
      "type": "function"
    },
    {
      "inputs": [],
      "name": "contractURI",
      "outputs": [
        {
          "internalType": "string",
          "name": "",
          "type": "string"
        }
      ],
      "stateMutability": "pure",
      "type": "function"
    },
    {
      "inputs": [
        {
          "internalType": "address",
          "name": "",
          "type": "address"
        },
        {
          "internalType": "uint256",
          "name": "",
          "type": "uint256"
        }
      ],
      "name": "creatorTokens",
      "outputs": [
        {
          "internalType": "uint256",
          "name": "id",
          "type": "uint256"
        },
        {
          "components": [
            {
              "internalType": "address",
              "name": "creatorAddress",
              "type": "address"
            },
            {
              "internalType": "string",
              "name": "name",
              "type": "string"
            },
            {
              "internalType": "uint256",
              "name": "registeredDate",
              "type": "uint256"
            },
            {
              "internalType": "bool",
              "name": "registrationStatus",
              "type": "bool"
            }
          ],
          "internalType": "struct MyToken.Creator",
          "name": "creator",
          "type": "tuple"
        },
        {
          "internalType": "string",
          "name": "tokenName",
          "type": "string"
        },
        {
          "internalType": "string",
          "name": "mediaUrl",
          "type": "string"
        },
        {
          "internalType": "uint256",
          "name": "cost",
          "type": "uint256"
        },
        {
          "internalType": "uint256",
          "name": "amountAvailable",
          "type": "uint256"
        },
        {
          "internalType": "uint256",
          "name": "totalSupply",
          "type": "uint256"
        },
        {
          "internalType": "uint256",
          "name": "createdTime",
          "type": "uint256"
        }
      ],
      "stateMutability": "view",
      "type": "function"
    },
    {
      "inputs": [],
      "name": "fetchAvailableNFTs",
      "outputs": [
        {
          "components": [
            {
              "internalType": "uint256",
              "name": "id",
              "type": "uint256"
            },
            {
              "components": [
                {
                  "internalType": "address",
                  "name": "creatorAddress",
                  "type": "address"
                },
                {
                  "internalType": "string",
                  "name": "name",
                  "type": "string"
                },
                {
                  "internalType": "uint256",
                  "name": "registeredDate",
                  "type": "uint256"
                },
                {
                  "internalType": "bool",
                  "name": "registrationStatus",
                  "type": "bool"
                }
              ],
              "internalType": "struct MyToken.Creator",
              "name": "creator",
              "type": "tuple"
            },
            {
              "internalType": "string",
              "name": "tokenName",
              "type": "string"
            },
            {
              "internalType": "string",
              "name": "mediaUrl",
              "type": "string"
            },
            {
              "internalType": "uint256",
              "name": "cost",
              "type": "uint256"
            },
            {
              "internalType": "uint256",
              "name": "amountAvailable",
              "type": "uint256"
            },
            {
              "internalType": "uint256",
              "name": "totalSupply",
              "type": "uint256"
            },
            {
              "internalType": "uint256",
              "name": "createdTime",
              "type": "uint256"
            }
          ],
          "internalType": "struct MyToken.Token[]",
          "name": "itemList",
          "type": "tuple[]"
        }
      ],
      "stateMutability": "view",
      "type": "function"
    },
    {
      "inputs": [],
      "name": "fetchBoughtNFTs",
      "outputs": [
        {
          "components": [
            {
              "internalType": "uint256",
              "name": "id",
              "type": "uint256"
            },
            {
              "components": [
                {
                  "internalType": "address",
                  "name": "creatorAddress",
                  "type": "address"
                },
                {
                  "internalType": "string",
                  "name": "name",
                  "type": "string"
                },
                {
                  "internalType": "uint256",
                  "name": "registeredDate",
                  "type": "uint256"
                },
                {
                  "internalType": "bool",
                  "name": "registrationStatus",
                  "type": "bool"
                }
              ],
              "internalType": "struct MyToken.Creator",
              "name": "creator",
              "type": "tuple"
            },
            {
              "internalType": "string",
              "name": "tokenName",
              "type": "string"
            },
            {
              "internalType": "string",
              "name": "mediaUrl",
              "type": "string"
            },
            {
              "internalType": "uint256",
              "name": "cost",
              "type": "uint256"
            },
            {
              "internalType": "uint256",
              "name": "amountAvailable",
              "type": "uint256"
            },
            {
              "internalType": "uint256",
              "name": "totalSupply",
              "type": "uint256"
            },
            {
              "internalType": "uint256",
              "name": "createdTime",
              "type": "uint256"
            }
          ],
          "internalType": "struct MyToken.Token[]",
          "name": "itemList",
          "type": "tuple[]"
        }
      ],
      "stateMutability": "view",
      "type": "function"
    },
    {
      "inputs": [],
      "name": "fetchCreatedNFTs",
      "outputs": [
        {
          "components": [
            {
              "internalType": "uint256",
              "name": "id",
              "type": "uint256"
            },
            {
              "components": [
                {
                  "internalType": "address",
                  "name": "creatorAddress",
                  "type": "address"
                },
                {
                  "internalType": "string",
                  "name": "name",
                  "type": "string"
                },
                {
                  "internalType": "uint256",
                  "name": "registeredDate",
                  "type": "uint256"
                },
                {
                  "internalType": "bool",
                  "name": "registrationStatus",
                  "type": "bool"
                }
              ],
              "internalType": "struct MyToken.Creator",
              "name": "creator",
              "type": "tuple"
            },
            {
              "internalType": "string",
              "name": "tokenName",
              "type": "string"
            },
            {
              "internalType": "string",
              "name": "mediaUrl",
              "type": "string"
            },
            {
              "internalType": "uint256",
              "name": "cost",
              "type": "uint256"
            },
            {
              "internalType": "uint256",
              "name": "amountAvailable",
              "type": "uint256"
            },
            {
              "internalType": "uint256",
              "name": "totalSupply",
              "type": "uint256"
            },
            {
              "internalType": "uint256",
              "name": "createdTime",
              "type": "uint256"
            }
          ],
          "internalType": "struct MyToken.Token[]",
          "name": "itemList",
          "type": "tuple[]"
        }
      ],
      "stateMutability": "view",
      "type": "function"
    },
    {
      "inputs": [
        {
          "internalType": "uint256",
          "name": "",
          "type": "uint256"
        }
      ],
      "name": "idToToken",
      "outputs": [
        {
          "internalType": "uint256",
          "name": "id",
          "type": "uint256"
        },
        {
          "components": [
            {
              "internalType": "address",
              "name": "creatorAddress",
              "type": "address"
            },
            {
              "internalType": "string",
              "name": "name",
              "type": "string"
            },
            {
              "internalType": "uint256",
              "name": "registeredDate",
              "type": "uint256"
            },
            {
              "internalType": "bool",
              "name": "registrationStatus",
              "type": "bool"
            }
          ],
          "internalType": "struct MyToken.Creator",
          "name": "creator",
          "type": "tuple"
        },
        {
          "internalType": "string",
          "name": "tokenName",
          "type": "string"
        },
        {
          "internalType": "string",
          "name": "mediaUrl",
          "type": "string"
        },
        {
          "internalType": "uint256",
          "name": "cost",
          "type": "uint256"
        },
        {
          "internalType": "uint256",
          "name": "amountAvailable",
          "type": "uint256"
        },
        {
          "internalType": "uint256",
          "name": "totalSupply",
          "type": "uint256"
        },
        {
          "internalType": "uint256",
          "name": "createdTime",
          "type": "uint256"
        }
      ],
      "stateMutability": "view",
      "type": "function"
    },
    {
      "inputs": [
        {
          "internalType": "address",
          "name": "account",
          "type": "address"
        },
        {
          "internalType": "address",
          "name": "operator",
          "type": "address"
        }
      ],
      "name": "isApprovedForAll",
      "outputs": [
        {
          "internalType": "bool",
          "name": "",
          "type": "bool"
        }
      ],
      "stateMutability": "view",
      "type": "function"
    },
    {
      "inputs": [
        {
          "internalType": "string",
          "name": "tokenName",
          "type": "string"
        },
        {
          "internalType": "uint256",
          "name": "cost",
          "type": "uint256"
        },
        {
          "internalType": "uint256",
          "name": "total",
          "type": "uint256"
        },
        {
          "internalType": "string",
          "name": "uri",
          "type": "string"
        },
        {
          "internalType": "string",
          "name": "mediaUrl",
          "type": "string"
        }
      ],
      "name": "mint",
      "outputs": [],
      "stateMutability": "nonpayable",
      "type": "function"
    },
    {
      "inputs": [],
      "name": "name",
      "outputs": [
        {
          "internalType": "string",
          "name": "",
          "type": "string"
        }
      ],
      "stateMutability": "view",
      "type": "function"
    },
    {
      "inputs": [],
      "name": "owner",
      "outputs": [
        {
          "internalType": "address",
          "name": "",
          "type": "address"
        }
      ],
      "stateMutability": "view",
      "type": "function"
    },
    {
      "inputs": [],
      "name": "pool",
      "outputs": [
        {
          "internalType": "address",
          "name": "",
          "type": "address"
        }
      ],
      "stateMutability": "view",
      "type": "function"
    },
    {
      "inputs": [
        {
          "internalType": "address",
          "name": "creatorAddress",
          "type": "address"
        },
        {
          "internalType": "string",
          "name": "name",
          "type": "string"
        }
      ],
      "name": "registerCreator",
      "outputs": [
        {
          "internalType": "bool",
          "name": "",
          "type": "bool"
        }
      ],
      "stateMutability": "nonpayable",
      "type": "function"
    },
    {
      "inputs": [
        {
          "internalType": "address",
          "name": "",
          "type": "address"
        }
      ],
      "name": "registeredCreator",
      "outputs": [
        {
          "internalType": "address",
          "name": "creatorAddress",
          "type": "address"
        },
        {
          "internalType": "string",
          "name": "name",
          "type": "string"
        },
        {
          "internalType": "uint256",
          "name": "registeredDate",
          "type": "uint256"
        },
        {
          "internalType": "bool",
          "name": "registrationStatus",
          "type": "bool"
        }
      ],
      "stateMutability": "view",
      "type": "function"
    },
    {
      "inputs": [
        {
          "internalType": "uint256",
          "name": "",
          "type": "uint256"
        }
      ],
      "name": "registeredCreators",
      "outputs": [
        {
          "internalType": "address",
          "name": "",
          "type": "address"
        }
      ],
      "stateMutability": "view",
      "type": "function"
    },
    {
      "inputs": [
        {
          "internalType": "uint256",
          "name": "",
          "type": "uint256"
        }
      ],
      "name": "registeredUsers",
      "outputs": [
        {
          "internalType": "address",
          "name": "",
          "type": "address"
        }
      ],
      "stateMutability": "view",
      "type": "function"
    },
    {
      "inputs": [],
      "name": "renounceOwnership",
      "outputs": [],
      "stateMutability": "nonpayable",
      "type": "function"
    },
    {
      "inputs": [
        {
          "internalType": "address",
          "name": "from",
          "type": "address"
        },
        {
          "internalType": "address",
          "name": "to",
          "type": "address"
        },
        {
          "internalType": "uint256[]",
          "name": "ids",
          "type": "uint256[]"
        },
        {
          "internalType": "uint256[]",
          "name": "amounts",
          "type": "uint256[]"
        },
        {
          "internalType": "bytes",
          "name": "data",
          "type": "bytes"
        }
      ],
      "name": "safeBatchTransferFrom",
      "outputs": [],
      "stateMutability": "nonpayable",
      "type": "function"
    },
    {
      "inputs": [
        {
          "internalType": "address",
          "name": "from",
          "type": "address"
        },
        {
          "internalType": "address",
          "name": "to",
          "type": "address"
        },
        {
          "internalType": "uint256",
          "name": "id",
          "type": "uint256"
        },
        {
          "internalType": "uint256",
          "name": "amount",
          "type": "uint256"
        },
        {
          "internalType": "bytes",
          "name": "data",
          "type": "bytes"
        }
      ],
      "name": "safeTransferFrom",
      "outputs": [],
      "stateMutability": "nonpayable",
      "type": "function"
    },
    {
      "inputs": [
        {
          "internalType": "address",
          "name": "operator",
          "type": "address"
        },
        {
          "internalType": "bool",
          "name": "approved",
          "type": "bool"
        }
      ],
      "name": "setApprovalForAll",
      "outputs": [],
      "stateMutability": "nonpayable",
      "type": "function"
    },
    {
      "inputs": [
        {
          "internalType": "bytes4",
          "name": "interfaceId",
          "type": "bytes4"
        }
      ],
      "name": "supportsInterface",
      "outputs": [
        {
          "internalType": "bool",
          "name": "",
          "type": "bool"
        }
      ],
      "stateMutability": "view",
      "type": "function"
    },
    {
      "inputs": [
        {
          "internalType": "uint256",
          "name": "",
          "type": "uint256"
        }
      ],
      "name": "tokensAvailable",
      "outputs": [
        {
          "internalType": "uint256",
          "name": "",
          "type": "uint256"
        }
      ],
      "stateMutability": "view",
      "type": "function"
    },
    {
      "inputs": [
        {
          "internalType": "address",
          "name": "newOwner",
          "type": "address"
        }
      ],
      "name": "transferOwnership",
      "outputs": [],
      "stateMutability": "nonpayable",
      "type": "function"
    },
    {
      "inputs": [
        {
          "internalType": "uint256",
          "name": "",
          "type": "uint256"
        }
      ],
      "name": "uri",
      "outputs": [
        {
          "internalType": "string",
          "name": "",
          "type": "string"
        }
      ],
      "stateMutability": "view",
      "type": "function"
    }
  ],
  "bytecode": "0x60806040523480156200001157600080fd5b50604051620065213803806200652183398181016040528101906200003791906200032b565b6040518060400160405280600e81526020017f43726561746f72204e6174696f6e0000000000000000000000000000000000008152506200007e816200010860201b60201c565b506200009f620000936200012460201b60201c565b6200012c60201b60201c565b8160069080519060200190620000b7929190620001f2565b5033600560006101000a81548173ffffffffffffffffffffffffffffffffffffffff021916908373ffffffffffffffffffffffffffffffffffffffff16021790555080600a81905550505062000519565b806002908051906020019062000120929190620001f2565b5050565b600033905090565b6000600360009054906101000a900473ffffffffffffffffffffffffffffffffffffffff16905081600360006101000a81548173ffffffffffffffffffffffffffffffffffffffff021916908373ffffffffffffffffffffffffffffffffffffffff1602179055508173ffffffffffffffffffffffffffffffffffffffff168173ffffffffffffffffffffffffffffffffffffffff167f8be0079c531659141344cd1fd0a4f28419497f9722a3daafe3b4186f6b6457e060405160405180910390a35050565b828054620002009062000424565b90600052602060002090601f01602090048101928262000224576000855562000270565b82601f106200023f57805160ff191683800117855562000270565b8280016001018555821562000270579182015b828111156200026f57825182559160200191906001019062000252565b5b5090506200027f919062000283565b5090565b5b808211156200029e57600081600090555060010162000284565b5090565b6000620002b9620002b384620003ae565b62000385565b905082815260208101848484011115620002d257600080fd5b620002df848285620003ee565b509392505050565b600082601f830112620002f957600080fd5b81516200030b848260208601620002a2565b91505092915050565b6000815190506200032581620004ff565b92915050565b600080604083850312156200033f57600080fd5b600083015167ffffffffffffffff8111156200035a57600080fd5b6200036885828601620002e7565b92505060206200037b8582860162000314565b9150509250929050565b600062000391620003a4565b90506200039f82826200045a565b919050565b6000604051905090565b600067ffffffffffffffff821115620003cc57620003cb620004bf565b5b620003d782620004ee565b9050602081019050919050565b6000819050919050565b60005b838110156200040e578082015181840152602081019050620003f1565b838111156200041e576000848401525b50505050565b600060028204905060018216806200043d57607f821691505b6020821081141562000454576200045362000490565b5b50919050565b6200046582620004ee565b810181811067ffffffffffffffff82111715620004875762000486620004bf565b5b80604052505050565b7f4e487b7100000000000000000000000000000000000000000000000000000000600052602260045260246000fd5b7f4e487b7100000000000000000000000000000000000000000000000000000000600052604160045260246000fd5b6000601f19601f8301169050919050565b6200050a81620003e4565b81146200051657600080fd5b50565b615ff880620005296000396000f3fe6080604052600436106101b65760003560e01c80638da5cb5b116100ec578063be2a6ec01161008a578063e985e9c511610064578063e985e9c514610685578063f242432a146106c2578063f2fde38b146106eb578063f5c6b96b14610714576101b6565b8063be2a6ec0146105eb578063db3fa4cc14610616578063e8a3d4851461065a576101b6565b8063a51e81ed116100c6578063a51e81ed1461051d578063a7d5ad751461055a578063aa46a40014610583578063ba180040146105ae576101b6565b80638da5cb5b1461048c57806398ba6219146104b7578063a22cb465146104f4576101b6565b80632eb2c2d611610159578063715018a611610133578063715018a6146103c85780637259e0f8146103df57806376957c131461041c5780637975ce281461045c576101b6565b80632eb2c2d61461031e5780634e1273f4146103475780637019c1f914610384576101b6565b80630e89341c116101955780630e89341c1461026057806316f0115b1461029d57806318474cea146102c85780632d89c435146102f3576101b6565b8062fdd58e146101bb57806301ffc9a7146101f857806306fdde0314610235575b600080fd5b3480156101c757600080fd5b506101e260048036038101906101dd9190614817565b610758565b6040516101ef919061546b565b60405180910390f35b34801561020457600080fd5b5061021f600480360381019061021a91906148bf565b610821565b60405161022c919061520e565b60405180910390f35b34801561024157600080fd5b5061024a610903565b6040516102579190615229565b60405180910390f35b34801561026c57600080fd5b50610287600480360381019061028291906149d0565b610991565b6040516102949190615229565b60405180910390f35b3480156102a957600080fd5b506102b2610a25565b6040516102bf9190615010565b60405180910390f35b3480156102d457600080fd5b506102dd610a4b565b6040516102ea9190615193565b60405180910390f35b3480156102ff57600080fd5b50610308610efc565b6040516103159190615193565b60405180910390f35b34801561032a57600080fd5b5061034560048036038101906103409190614639565b61138e565b005b34801561035357600080fd5b5061036e60048036038101906103699190614853565b61142f565b60405161037b91906151b5565b60405180910390f35b34801561039057600080fd5b506103ab60048036038101906103a69190614817565b6115e0565b6040516103bf989796959493929190615486565b60405180910390f35b3480156103d457600080fd5b506103dd61186c565b005b3480156103eb57600080fd5b50610406600480360381019061040191906149d0565b6118f4565b6040516104139190615010565b60405180910390f35b34801561042857600080fd5b50610443600480360381019061043e91906145d4565b611933565b60405161045394939291906150ed565b60405180910390f35b610476600480360381019061047191906149f9565b611a18565b604051610483919061520e565b60405180910390f35b34801561049857600080fd5b506104a1611e47565b6040516104ae9190615010565b60405180910390f35b3480156104c357600080fd5b506104de60048036038101906104d991906149d0565b611e71565b6040516104eb919061546b565b60405180910390f35b34801561050057600080fd5b5061051b60048036038101906105169190614787565b611e89565b005b34801561052957600080fd5b50610544600480360381019061053f91906147c3565b61200a565b604051610551919061520e565b60405180910390f35b34801561056657600080fd5b50610581600480360381019061057c9190614911565b61220b565b005b34801561058f57600080fd5b5061059861281d565b6040516105a5919061546b565b60405180910390f35b3480156105ba57600080fd5b506105d560048036038101906105d091906149d0565b612829565b6040516105e29190615010565b60405180910390f35b3480156105f757600080fd5b50610600612868565b60405161060d9190615193565b60405180910390f35b34801561062257600080fd5b5061063d60048036038101906106389190614817565b612cb2565b604051610651989796959493929190615486565b60405180910390f35b34801561066657600080fd5b5061066f612f3e565b60405161067c9190615229565b60405180910390f35b34801561069157600080fd5b506106ac60048036038101906106a791906145fd565b612f7b565b6040516106b9919061520e565b60405180910390f35b3480156106ce57600080fd5b506106e960048036038101906106e491906146f8565b61300f565b005b3480156106f757600080fd5b50610712600480360381019061070d91906145d4565b6130b0565b005b34801561072057600080fd5b5061073b600480360381019061073691906149d0565b6131a8565b60405161074f989796959493929190615486565b60405180910390f35b60008073ffffffffffffffffffffffffffffffffffffffff168373ffffffffffffffffffffffffffffffffffffffff1614156107c9576040517f08c379a00000000000000000000000000000000000000000000000000000000081526004016107c0906152ab565b60405180910390fd5b60008083815260200190815260200160002060008473ffffffffffffffffffffffffffffffffffffffff1673ffffffffffffffffffffffffffffffffffffffff16815260200190815260200160002054905092915050565b60007fd9b67a26000000000000000000000000000000000000000000000000000000007bffffffffffffffffffffffffffffffffffffffffffffffffffffffff1916827bffffffffffffffffffffffffffffffffffffffffffffffffffffffff191614806108ec57507f0e89341c000000000000000000000000000000000000000000000000000000007bffffffffffffffffffffffffffffffffffffffffffffffffffffffff1916827bffffffffffffffffffffffffffffffffffffffffffffffffffffffff1916145b806108fc57506108fb82613417565b5b9050919050565b60068054610910906158a7565b80601f016020809104026020016040519081016040528092919081815260200182805461093c906158a7565b80156109895780601f1061095e57610100808354040283529160200191610989565b820191906000526020600020905b81548152906001019060200180831161096c57829003601f168201915b505050505081565b6060600280546109a0906158a7565b80601f01602080910402602001604051908101604052809291908181526020018280546109cc906158a7565b8015610a195780601f106109ee57610100808354040283529160200191610a19565b820191906000526020600020905b8154815290600101906020018083116109fc57829003601f168201915b50505050509050919050565b600560009054906101000a900473ffffffffffffffffffffffffffffffffffffffff1681565b606060003390506000600e60008373ffffffffffffffffffffffffffffffffffffffff1673ffffffffffffffffffffffffffffffffffffffff168152602001908152602001600020805490501115610ef7576000600e60008373ffffffffffffffffffffffffffffffffffffffff1673ffffffffffffffffffffffffffffffffffffffff16815260200190815260200160002080549050905060008167ffffffffffffffff811115610b26577f4e487b7100000000000000000000000000000000000000000000000000000000600052604160045260246000fd5b604051908082528060200260200182016040528015610b5f57816020015b610b4c6141b4565b815260200190600190039081610b445790505b509050600080600090505b83811015610eea57600e60008673ffffffffffffffffffffffffffffffffffffffff1673ffffffffffffffffffffffffffffffffffffffff1681526020019081526020016000208181548110610be9577f4e487b7100000000000000000000000000000000000000000000000000000000600052603260045260246000fd5b90600052602060002090600b0201600001549150600b60008381526020019081526020016000206040518061010001604052908160008201548152602001600182016040518060800160405290816000820160009054906101000a900473ffffffffffffffffffffffffffffffffffffffff1673ffffffffffffffffffffffffffffffffffffffff1673ffffffffffffffffffffffffffffffffffffffff168152602001600182018054610c9c906158a7565b80601f0160208091040260200160405190810160405280929190818152602001828054610cc8906158a7565b8015610d155780601f10610cea57610100808354040283529160200191610d15565b820191906000526020600020905b815481529060010190602001808311610cf857829003601f168201915b50505050508152602001600282015481526020016003820160009054906101000a900460ff1615151515815250508152602001600582018054610d57906158a7565b80601f0160208091040260200160405190810160405280929190818152602001828054610d83906158a7565b8015610dd05780601f10610da557610100808354040283529160200191610dd0565b820191906000526020600020905b815481529060010190602001808311610db357829003601f168201915b50505050508152602001600682018054610de9906158a7565b80601f0160208091040260200160405190810160405280929190818152602001828054610e15906158a7565b8015610e625780601f10610e3757610100808354040283529160200191610e62565b820191906000526020600020905b815481529060010190602001808311610e4557829003601f168201915b50505050508152602001600782015481526020016008820154815260200160098201548152602001600a82015481525050838281518110610ecc577f4e487b7100000000000000000000000000000000000000000000000000000000600052603260045260246000fd5b60200260200101819052508080610ee29061590a565b915050610b6a565b5081945050505050610ef9565b505b90565b606060003390506000600860008373ffffffffffffffffffffffffffffffffffffffff1673ffffffffffffffffffffffffffffffffffffffff168152602001908152602001600020805490501115611389576000600860008373ffffffffffffffffffffffffffffffffffffffff1673ffffffffffffffffffffffffffffffffffffffff16815260200190815260200160002080549050905060008167ffffffffffffffff811115610fd7577f4e487b7100000000000000000000000000000000000000000000000000000000600052604160045260246000fd5b60405190808252806020026020018201604052801561101057816020015b610ffd6141b4565b815260200190600190039081610ff55790505b50905060005b8281101561137d57600860008573ffffffffffffffffffffffffffffffffffffffff1673ffffffffffffffffffffffffffffffffffffffff1681526020019081526020016000208181548110611095577f4e487b7100000000000000000000000000000000000000000000000000000000600052603260045260246000fd5b90600052602060002090600b02016040518061010001604052908160008201548152602001600182016040518060800160405290816000820160009054906101000a900473ffffffffffffffffffffffffffffffffffffffff1673ffffffffffffffffffffffffffffffffffffffff1673ffffffffffffffffffffffffffffffffffffffff16815260200160018201805461112f906158a7565b80601f016020809104026020016040519081016040528092919081815260200182805461115b906158a7565b80156111a85780601f1061117d576101008083540402835291602001916111a8565b820191906000526020600020905b81548152906001019060200180831161118b57829003601f168201915b50505050508152602001600282015481526020016003820160009054906101000a900460ff16151515158152505081526020016005820180546111ea906158a7565b80601f0160208091040260200160405190810160405280929190818152602001828054611216906158a7565b80156112635780601f1061123857610100808354040283529160200191611263565b820191906000526020600020905b81548152906001019060200180831161124657829003601f168201915b5050505050815260200160068201805461127c906158a7565b80601f01602080910402602001604051908101604052809291908181526020018280546112a8906158a7565b80156112f55780601f106112ca576101008083540402835291602001916112f5565b820191906000526020600020905b8154815290600101906020018083116112d857829003601f168201915b50505050508152602001600782015481526020016008820154815260200160098201548152602001600a8201548152505082828151811061135f577f4e487b7100000000000000000000000000000000000000000000000000000000600052603260045260246000fd5b602002602001018190525080806113759061590a565b915050611016565b5080935050505061138b565b505b90565b611396613481565b73ffffffffffffffffffffffffffffffffffffffff168573ffffffffffffffffffffffffffffffffffffffff1614806113dc57506113db856113d6613481565b612f7b565b5b61141b576040517f08c379a00000000000000000000000000000000000000000000000000000000081526004016114129061534b565b60405180910390fd5b6114288585858585613489565b5050505050565b60608151835114611475576040517f08c379a000000000000000000000000000000000000000000000000000000000815260040161146c9061540b565b60405180910390fd5b6000835167ffffffffffffffff8111156114b8577f4e487b7100000000000000000000000000000000000000000000000000000000600052604160045260246000fd5b6040519080825280602002602001820160405280156114e65781602001602082028036833780820191505090505b50905060005b84518110156115d55761157f858281518110611531577f4e487b7100000000000000000000000000000000000000000000000000000000600052603260045260246000fd5b6020026020010151858381518110611572577f4e487b7100000000000000000000000000000000000000000000000000000000600052603260045260246000fd5b6020026020010151610758565b8282815181106115b8577f4e487b7100000000000000000000000000000000000000000000000000000000600052603260045260246000fd5b602002602001018181525050806115ce9061590a565b90506114ec565b508091505092915050565b600860205281600052604060002081815481106115fc57600080fd5b90600052602060002090600b020160009150915050806000015490806001016040518060800160405290816000820160009054906101000a900473ffffffffffffffffffffffffffffffffffffffff1673ffffffffffffffffffffffffffffffffffffffff1673ffffffffffffffffffffffffffffffffffffffff16815260200160018201805461168c906158a7565b80601f01602080910402602001604051908101604052809291908181526020018280546116b8906158a7565b80156117055780601f106116da57610100808354040283529160200191611705565b820191906000526020600020905b8154815290600101906020018083116116e857829003601f168201915b50505050508152602001600282015481526020016003820160009054906101000a900460ff16151515158152505090806005018054611743906158a7565b80601f016020809104026020016040519081016040528092919081815260200182805461176f906158a7565b80156117bc5780601f10611791576101008083540402835291602001916117bc565b820191906000526020600020905b81548152906001019060200180831161179f57829003601f168201915b5050505050908060060180546117d1906158a7565b80601f01602080910402602001604051908101604052809291908181526020018280546117fd906158a7565b801561184a5780601f1061181f5761010080835404028352916020019161184a565b820191906000526020600020905b81548152906001019060200180831161182d57829003601f168201915b50505050509080600701549080600801549080600901549080600a0154905088565b611874613481565b73ffffffffffffffffffffffffffffffffffffffff16611892611e47565b73ffffffffffffffffffffffffffffffffffffffff16146118e8576040517f08c379a00000000000000000000000000000000000000000000000000000000081526004016118df906153ab565b60405180910390fd5b6118f260006137e9565b565b600d818154811061190457600080fd5b906000526020600020016000915054906101000a900473ffffffffffffffffffffffffffffffffffffffff1681565b60096020528060005260406000206000915090508060000160009054906101000a900473ffffffffffffffffffffffffffffffffffffffff169080600101805461197c906158a7565b80601f01602080910402602001604051908101604052809291908181526020018280546119a8906158a7565b80156119f55780601f106119ca576101008083540402835291602001916119f5565b820191906000526020600020905b8154815290600101906020018083116119d857829003601f168201915b5050505050908060020154908060030160009054906101000a900460ff16905084565b600081600b600085815260200190815260200160002060070154611a3c9190615763565b341015611a7e576040517f08c379a0000000000000000000000000000000000000000000000000000000008152600401611a75906152eb565b60405180910390fd5b6000600760008581526020019081526020016000205490506000600b600086815260200190815260200160002060010160000160009054906101000a900473ffffffffffffffffffffffffffffffffffffffff16905081841115611b17576040517f08c379a0000000000000000000000000000000000000000000000000000000008152600401611b0e9061528b565b60405180910390fd5b60006064600a546064611b2a91906157bd565b34611b359190615763565b611b3f9190615732565b905060006064600a5434611b539190615763565b611b5d9190615732565b90508273ffffffffffffffffffffffffffffffffffffffff166108fc839081150290604051600060405180830381858888f19350505050158015611ba5573d6000803e3d6000fd5b50600560009054906101000a900473ffffffffffffffffffffffffffffffffffffffff1673ffffffffffffffffffffffffffffffffffffffff166108fc829081150290604051600060405180830381858888f19350505050158015611c0e573d6000803e3d6000fd5b5085600760008981526020019081526020016000206000828254611c3291906157bd565b9250508190555085600b60008981526020019081526020016000206008016000828254611c5f91906157bd565b92505081905550600860003373ffffffffffffffffffffffffffffffffffffffff1673ffffffffffffffffffffffffffffffffffffffff168152602001908152602001600020600b600089815260200190815260200160002090806001815401808255809150506001900390600052602060002090600b02016000909190919091506000820154816000015560018201816001016000820160009054906101000a900473ffffffffffffffffffffffffffffffffffffffff168160000160006101000a81548173ffffffffffffffffffffffffffffffffffffffff021916908373ffffffffffffffffffffffffffffffffffffffff1602179055506001820181600101908054611d6e906158a7565b611d799291906141ff565b50600282015481600201556003820160009054906101000a900460ff168160030160006101000a81548160ff02191690831515021790555050506005820181600501908054611dc7906158a7565b611dd29291906141ff565b506006820181600601908054611de7906158a7565b611df29291906141ff565b50600782015481600701556008820154816008015560098201548160090155600a82015481600a01555050611e3983338989604051806020016040528060008152506138af565b600194505050505092915050565b6000600360009054906101000a900473ffffffffffffffffffffffffffffffffffffffff16905090565b60076020528060005260406000206000915090505481565b8173ffffffffffffffffffffffffffffffffffffffff16611ea8613481565b73ffffffffffffffffffffffffffffffffffffffff161415611eff576040517f08c379a0000000000000000000000000000000000000000000000000000000008152600401611ef6906153eb565b60405180910390fd5b8060016000611f0c613481565b73ffffffffffffffffffffffffffffffffffffffff1673ffffffffffffffffffffffffffffffffffffffff16815260200190815260200160002060008473ffffffffffffffffffffffffffffffffffffffff1673ffffffffffffffffffffffffffffffffffffffff16815260200190815260200160002060006101000a81548160ff0219169083151502179055508173ffffffffffffffffffffffffffffffffffffffff16611fb9613481565b73ffffffffffffffffffffffffffffffffffffffff167f17307eab39ab6107e8899845ad3d59bd9653f200f220920489ca2b5937696c3183604051611ffe919061520e565b60405180910390a35050565b6000612014613481565b73ffffffffffffffffffffffffffffffffffffffff16612032611e47565b73ffffffffffffffffffffffffffffffffffffffff1614612088576040517f08c379a000000000000000000000000000000000000000000000000000000000815260040161207f906153ab565b60405180910390fd5b61209061428c565b60405180608001604052808573ffffffffffffffffffffffffffffffffffffffff16815260200184815260200142815260200160011515815250905080600960008673ffffffffffffffffffffffffffffffffffffffff1673ffffffffffffffffffffffffffffffffffffffff16815260200190815260200160002060008201518160000160006101000a81548173ffffffffffffffffffffffffffffffffffffffff021916908373ffffffffffffffffffffffffffffffffffffffff160217905550602082015181600101908051906020019061216f9291906142cc565b506040820151816002015560608201518160030160006101000a81548160ff021916908315150217905550905050600c849080600181540180825580915050600190039060005260206000200160009091909190916101000a81548173ffffffffffffffffffffffffffffffffffffffff021916908373ffffffffffffffffffffffffffffffffffffffff160217905550600191505092915050565b60011515600960003373ffffffffffffffffffffffffffffffffffffffff1673ffffffffffffffffffffffffffffffffffffffff16815260200190815260200160002060030160009054906101000a900460ff161515146122a1576040517f08c379a00000000000000000000000000000000000000000000000000000000081526004016122989061536b565b60405180910390fd5b6006600e60003373ffffffffffffffffffffffffffffffffffffffff1673ffffffffffffffffffffffffffffffffffffffff1681526020019081526020016000208054905010612326576040517f08c379a000000000000000000000000000000000000000000000000000000000815260040161231d906153cb565b60405180910390fd5b61232e6141b4565b60405180610100016040528060016123466004613b31565b61235091906156dc565b8152602001600960003373ffffffffffffffffffffffffffffffffffffffff1673ffffffffffffffffffffffffffffffffffffffff1681526020019081526020016000206040518060800160405290816000820160009054906101000a900473ffffffffffffffffffffffffffffffffffffffff1673ffffffffffffffffffffffffffffffffffffffff1673ffffffffffffffffffffffffffffffffffffffff168152602001600182018054612405906158a7565b80601f0160208091040260200160405190810160405280929190818152602001828054612431906158a7565b801561247e5780601f106124535761010080835404028352916020019161247e565b820191906000526020600020905b81548152906001019060200180831161246157829003601f168201915b50505050508152602001600282015481526020016003820160009054906101000a900460ff161515151581525050815260200187815260200183815260200186815260200185815260200185815260200142815250905080600b600060016124e66004613b31565b6124f091906156dc565b81526020019081526020016000206000820151816000015560208201518160010160008201518160000160006101000a81548173ffffffffffffffffffffffffffffffffffffffff021916908373ffffffffffffffffffffffffffffffffffffffff16021790555060208201518160010190805190602001906125749291906142cc565b506040820151816002015560608201518160030160006101000a81548160ff021916908315150217905550505060408201518160050190805190602001906125bd9291906142cc565b5060608201518160060190805190602001906125da9291906142cc565b506080820151816007015560a0820151816008015560c0820151816009015560e082015181600a0155905050600e60003373ffffffffffffffffffffffffffffffffffffffff1673ffffffffffffffffffffffffffffffffffffffff1681526020019081526020016000208190806001815401808255809150506001900390600052602060002090600b02016000909190919091506000820151816000015560208201518160010160008201518160000160006101000a81548173ffffffffffffffffffffffffffffffffffffffff021916908373ffffffffffffffffffffffffffffffffffffffff16021790555060208201518160010190805190602001906126e59291906142cc565b506040820151816002015560608201518160030160006101000a81548160ff0219169083151502179055505050604082015181600501908051906020019061272e9291906142cc565b50606082015181600601908051906020019061274b9291906142cc565b506080820151816007015560a0820151816008015560c0820151816009015560e082015181600a0155505061277f83613b3f565b6127896004613b59565b60006127956004613b31565b90506127b233828760405180602001604052806000815250613b6f565b6127bd306001611e89565b8460076000838152602001908152602001600020819055507fd33a29693b0c1e4497bd99a5d678d78d400627b434590d51b4961816620b20a6338883898960405161280c959493929190615139565b60405180910390a150505050505050565b60048060000154905081565b600c818154811061283957600080fd5b906000526020600020016000915054906101000a900473ffffffffffffffffffffffffffffffffffffffff1681565b60608060006128776004613b31565b14156128865780915050612caf565b600080600190505b6128986004613b31565b81116128e0576000600b60008381526020019081526020016000206008015411156128cd576001826128ca91906156dc565b91505b80806128d89061590a565b91505061288e565b5060018110156128f4578192505050612caf565b6000808267ffffffffffffffff811115612937577f4e487b7100000000000000000000000000000000000000000000000000000000600052604160045260246000fd5b60405190808252806020026020018201604052801561297057816020015b61295d6141b4565b8152602001906001900390816129555790505b5090506000600190505b6129846004613b31565b8111612ca6576000600b6000838152602001908152602001600020600801541115612c9357600b60008281526020019081526020016000206040518061010001604052908160008201548152602001600182016040518060800160405290816000820160009054906101000a900473ffffffffffffffffffffffffffffffffffffffff1673ffffffffffffffffffffffffffffffffffffffff1673ffffffffffffffffffffffffffffffffffffffff168152602001600182018054612a48906158a7565b80601f0160208091040260200160405190810160405280929190818152602001828054612a74906158a7565b8015612ac15780601f10612a9657610100808354040283529160200191612ac1565b820191906000526020600020905b815481529060010190602001808311612aa457829003601f168201915b50505050508152602001600282015481526020016003820160009054906101000a900460ff1615151515815250508152602001600582018054612b03906158a7565b80601f0160208091040260200160405190810160405280929190818152602001828054612b2f906158a7565b8015612b7c5780601f10612b5157610100808354040283529160200191612b7c565b820191906000526020600020905b815481529060010190602001808311612b5f57829003601f168201915b50505050508152602001600682018054612b95906158a7565b80601f0160208091040260200160405190810160405280929190818152602001828054612bc1906158a7565b8015612c0e5780601f10612be357610100808354040283529160200191612c0e565b820191906000526020600020905b815481529060010190602001808311612bf157829003601f168201915b50505050508152602001600782015481526020016008820154815260200160098201548152602001600a82015481525050828481518110612c78577f4e487b7100000000000000000000000000000000000000000000000000000000600052603260045260246000fd5b6020026020010181905250600183612c9091906156dc565b92505b8080612c9e9061590a565b91505061297a565b50809450505050505b90565b600e6020528160005260406000208181548110612cce57600080fd5b90600052602060002090600b020160009150915050806000015490806001016040518060800160405290816000820160009054906101000a900473ffffffffffffffffffffffffffffffffffffffff1673ffffffffffffffffffffffffffffffffffffffff1673ffffffffffffffffffffffffffffffffffffffff168152602001600182018054612d5e906158a7565b80601f0160208091040260200160405190810160405280929190818152602001828054612d8a906158a7565b8015612dd75780601f10612dac57610100808354040283529160200191612dd7565b820191906000526020600020905b815481529060010190602001808311612dba57829003601f168201915b50505050508152602001600282015481526020016003820160009054906101000a900460ff16151515158152505090806005018054612e15906158a7565b80601f0160208091040260200160405190810160405280929190818152602001828054612e41906158a7565b8015612e8e5780601f10612e6357610100808354040283529160200191612e8e565b820191906000526020600020905b815481529060010190602001808311612e7157829003601f168201915b505050505090806006018054612ea3906158a7565b80601f0160208091040260200160405190810160405280929190818152602001828054612ecf906158a7565b8015612f1c5780601f10612ef157610100808354040283529160200191612f1c565b820191906000526020600020905b815481529060010190602001808311612eff57829003601f168201915b50505050509080600701549080600801549080600901549080600a0154905088565b60606040518060400160405280601d81526020017f68747470733a2f2f6a736f6e6b65657065722e636f6d2f622f4f4a4f43000000815250905090565b6000600160008473ffffffffffffffffffffffffffffffffffffffff1673ffffffffffffffffffffffffffffffffffffffff16815260200190815260200160002060008373ffffffffffffffffffffffffffffffffffffffff1673ffffffffffffffffffffffffffffffffffffffff16815260200190815260200160002060009054906101000a900460ff16905092915050565b613017613481565b73ffffffffffffffffffffffffffffffffffffffff168573ffffffffffffffffffffffffffffffffffffffff16148061305d575061305c85613057613481565b612f7b565b5b61309c576040517f08c379a00000000000000000000000000000000000000000000000000000000081526004016130939061530b565b60405180910390fd5b6130a985858585856138af565b5050505050565b6130b8613481565b73ffffffffffffffffffffffffffffffffffffffff166130d6611e47565b73ffffffffffffffffffffffffffffffffffffffff161461312c576040517f08c379a0000000000000000000000000000000000000000000000000000000008152600401613123906153ab565b60405180910390fd5b600073ffffffffffffffffffffffffffffffffffffffff168173ffffffffffffffffffffffffffffffffffffffff16141561319c576040517f08c379a0000000000000000000000000000000000000000000000000000000008152600401613193906152cb565b60405180910390fd5b6131a5816137e9565b50565b600b602052806000526040600020600091509050806000015490806001016040518060800160405290816000820160009054906101000a900473ffffffffffffffffffffffffffffffffffffffff1673ffffffffffffffffffffffffffffffffffffffff1673ffffffffffffffffffffffffffffffffffffffff168152602001600182018054613237906158a7565b80601f0160208091040260200160405190810160405280929190818152602001828054613263906158a7565b80156132b05780601f10613285576101008083540402835291602001916132b0565b820191906000526020600020905b81548152906001019060200180831161329357829003601f168201915b50505050508152602001600282015481526020016003820160009054906101000a900460ff161515151581525050908060050180546132ee906158a7565b80601f016020809104026020016040519081016040528092919081815260200182805461331a906158a7565b80156133675780601f1061333c57610100808354040283529160200191613367565b820191906000526020600020905b81548152906001019060200180831161334a57829003601f168201915b50505050509080600601805461337c906158a7565b80601f01602080910402602001604051908101604052809291908181526020018280546133a8906158a7565b80156133f55780601f106133ca576101008083540402835291602001916133f5565b820191906000526020600020905b8154815290600101906020018083116133d857829003601f168201915b50505050509080600701549080600801549080600901549080600a0154905088565b60007f01ffc9a7000000000000000000000000000000000000000000000000000000007bffffffffffffffffffffffffffffffffffffffffffffffffffffffff1916827bffffffffffffffffffffffffffffffffffffffffffffffffffffffff1916149050919050565b600033905090565b81518351146134cd576040517f08c379a00000000000000000000000000000000000000000000000000000000081526004016134c49061542b565b60405180910390fd5b600073ffffffffffffffffffffffffffffffffffffffff168473ffffffffffffffffffffffffffffffffffffffff16141561353d576040517f08c379a00000000000000000000000000000000000000000000000000000000081526004016135349061532b565b60405180910390fd5b6000613547613481565b9050613557818787878787613d05565b60005b845181101561375457600085828151811061359e577f4e487b7100000000000000000000000000000000000000000000000000000000600052603260045260246000fd5b6020026020010151905060008583815181106135e3577f4e487b7100000000000000000000000000000000000000000000000000000000600052603260045260246000fd5b60200260200101519050600080600084815260200190815260200160002060008b73ffffffffffffffffffffffffffffffffffffffff1673ffffffffffffffffffffffffffffffffffffffff16815260200190815260200160002054905081811015613684576040517f08c379a000000000000000000000000000000000000000000000000000000000815260040161367b9061538b565b60405180910390fd5b81810360008085815260200190815260200160002060008c73ffffffffffffffffffffffffffffffffffffffff1673ffffffffffffffffffffffffffffffffffffffff168152602001908152602001600020819055508160008085815260200190815260200160002060008b73ffffffffffffffffffffffffffffffffffffffff1673ffffffffffffffffffffffffffffffffffffffff168152602001908152602001600020600082825461373991906156dc565b925050819055505050508061374d9061590a565b905061355a565b508473ffffffffffffffffffffffffffffffffffffffff168673ffffffffffffffffffffffffffffffffffffffff168273ffffffffffffffffffffffffffffffffffffffff167f4a39dc06d4c0dbc64b70af90fd698a233a518aa5d07e595d983b8c0526c8f7fb87876040516137cb9291906151d7565b60405180910390a46137e1818787878787613d0d565b505050505050565b6000600360009054906101000a900473ffffffffffffffffffffffffffffffffffffffff16905081600360006101000a81548173ffffffffffffffffffffffffffffffffffffffff021916908373ffffffffffffffffffffffffffffffffffffffff1602179055508173ffffffffffffffffffffffffffffffffffffffff168173ffffffffffffffffffffffffffffffffffffffff167f8be0079c531659141344cd1fd0a4f28419497f9722a3daafe3b4186f6b6457e060405160405180910390a35050565b600073ffffffffffffffffffffffffffffffffffffffff168473ffffffffffffffffffffffffffffffffffffffff16141561391f576040517f08c379a00000000000000000000000000000000000000000000000000000000081526004016139169061532b565b60405180910390fd5b6000613929613481565b905061394981878761393a88613ef4565b61394388613ef4565b87613d05565b600080600086815260200190815260200160002060008873ffffffffffffffffffffffffffffffffffffffff1673ffffffffffffffffffffffffffffffffffffffff168152602001908152602001600020549050838110156139e0576040517f08c379a00000000000000000000000000000000000000000000000000000000081526004016139d79061538b565b60405180910390fd5b83810360008087815260200190815260200160002060008973ffffffffffffffffffffffffffffffffffffffff1673ffffffffffffffffffffffffffffffffffffffff168152602001908152602001600020819055508360008087815260200190815260200160002060008873ffffffffffffffffffffffffffffffffffffffff1673ffffffffffffffffffffffffffffffffffffffff1681526020019081526020016000206000828254613a9591906156dc565b925050819055508573ffffffffffffffffffffffffffffffffffffffff168773ffffffffffffffffffffffffffffffffffffffff168373ffffffffffffffffffffffffffffffffffffffff167fc3d58168c5ae7397731d063d5bbf3d657854427343f4c083240f7aacaa2d0f628888604051613b12929190615519565b60405180910390a4613b28828888888888613fba565b50505050505050565b600081600001549050919050565b8060029080519060200190613b559291906142cc565b5050565b6001816000016000828254019250508190555050565b600073ffffffffffffffffffffffffffffffffffffffff168473ffffffffffffffffffffffffffffffffffffffff161415613bdf576040517f08c379a0000000000000000000000000000000000000000000000000000000008152600401613bd69061544b565b60405180910390fd5b6000613be9613481565b9050613c0a81600087613bfb88613ef4565b613c0488613ef4565b87613d05565b8260008086815260200190815260200160002060008773ffffffffffffffffffffffffffffffffffffffff1673ffffffffffffffffffffffffffffffffffffffff1681526020019081526020016000206000828254613c6991906156dc565b925050819055508473ffffffffffffffffffffffffffffffffffffffff16600073ffffffffffffffffffffffffffffffffffffffff168273ffffffffffffffffffffffffffffffffffffffff167fc3d58168c5ae7397731d063d5bbf3d657854427343f4c083240f7aacaa2d0f628787604051613ce7929190615519565b60405180910390a4613cfe81600087878787613fba565b5050505050565b505050505050565b613d2c8473ffffffffffffffffffffffffffffffffffffffff166141a1565b15613eec578373ffffffffffffffffffffffffffffffffffffffff1663bc197c8187878686866040518663ffffffff1660e01b8152600401613d7295949392919061502b565b602060405180830381600087803b158015613d8c57600080fd5b505af1925050508015613dbd57506040513d601f19601f82011682018060405250810190613dba91906148e8565b60015b613e6357613dc9615a0f565b806308c379a01415613e265750613dde615ed0565b80613de95750613e28565b806040517f08c379a0000000000000000000000000000000000000000000000000000000008152600401613e1d9190615229565b60405180910390fd5b505b6040517f08c379a0000000000000000000000000000000000000000000000000000000008152600401613e5a9061524b565b60405180910390fd5b63bc197c8160e01b7bffffffffffffffffffffffffffffffffffffffffffffffffffffffff1916817bffffffffffffffffffffffffffffffffffffffffffffffffffffffff191614613eea576040517f08c379a0000000000000000000000000000000000000000000000000000000008152600401613ee19061526b565b60405180910390fd5b505b505050505050565b60606000600167ffffffffffffffff811115613f39577f4e487b7100000000000000000000000000000000000000000000000000000000600052604160045260246000fd5b604051908082528060200260200182016040528015613f675781602001602082028036833780820191505090505b5090508281600081518110613fa5577f4e487b7100000000000000000000000000000000000000000000000000000000600052603260045260246000fd5b60200260200101818152505080915050919050565b613fd98473ffffffffffffffffffffffffffffffffffffffff166141a1565b15614199578373ffffffffffffffffffffffffffffffffffffffff1663f23a6e6187878686866040518663ffffffff1660e01b815260040161401f959493929190615093565b602060405180830381600087803b15801561403957600080fd5b505af192505050801561406a57506040513d601f19601f8201168201806040525081019061406791906148e8565b60015b61411057614076615a0f565b806308c379a014156140d3575061408b615ed0565b8061409657506140d5565b806040517f08c379a00000000000000000000000000000000000000000000000000000000081526004016140ca9190615229565b60405180910390fd5b505b6040517f08c379a00000000000000000000000000000000000000000000000000000000081526004016141079061524b565b60405180910390fd5b63f23a6e6160e01b7bffffffffffffffffffffffffffffffffffffffffffffffffffffffff1916817bffffffffffffffffffffffffffffffffffffffffffffffffffffffff191614614197576040517f08c379a000000000000000000000000000000000000000000000000000000000815260040161418e9061526b565b60405180910390fd5b505b505050505050565b600080823b905060008111915050919050565b604051806101000160405280600081526020016141cf61428c565b81526020016060815260200160608152602001600081526020016000815260200160008152602001600081525090565b82805461420b906158a7565b90600052602060002090601f01602090048101928261422d576000855561427b565b82601f1061423e578054855561427b565b8280016001018555821561427b57600052602060002091601f016020900482015b8281111561427a57825482559160010191906001019061425f565b5b5090506142889190614352565b5090565b6040518060800160405280600073ffffffffffffffffffffffffffffffffffffffff16815260200160608152602001600081526020016000151581525090565b8280546142d8906158a7565b90600052602060002090601f0160209004810192826142fa5760008555614341565b82601f1061431357805160ff1916838001178555614341565b82800160010185558215614341579182015b82811115614340578251825591602001919060010190614325565b5b50905061434e9190614352565b5090565b5b8082111561436b576000816000905550600101614353565b5090565b600061438261437d84615567565b615542565b905080838252602082019050828560208602820111156143a157600080fd5b60005b858110156143d157816143b788826144c3565b8452602084019350602083019250506001810190506143a4565b5050509392505050565b60006143ee6143e984615593565b615542565b9050808382526020820190508285602086028201111561440d57600080fd5b60005b8581101561443d578161442388826145bf565b845260208401935060208301925050600181019050614410565b5050509392505050565b600061445a614455846155bf565b615542565b90508281526020810184848401111561447257600080fd5b61447d848285615865565b509392505050565b6000614498614493846155f0565b615542565b9050828152602081018484840111156144b057600080fd5b6144bb848285615865565b509392505050565b6000813590506144d281615f66565b92915050565b600082601f8301126144e957600080fd5b81356144f984826020860161436f565b91505092915050565b600082601f83011261451357600080fd5b81356145238482602086016143db565b91505092915050565b60008135905061453b81615f7d565b92915050565b60008135905061455081615f94565b92915050565b60008151905061456581615f94565b92915050565b600082601f83011261457c57600080fd5b813561458c848260208601614447565b91505092915050565b600082601f8301126145a657600080fd5b81356145b6848260208601614485565b91505092915050565b6000813590506145ce81615fab565b92915050565b6000602082840312156145e657600080fd5b60006145f4848285016144c3565b91505092915050565b6000806040838503121561461057600080fd5b600061461e858286016144c3565b925050602061462f858286016144c3565b9150509250929050565b600080600080600060a0868803121561465157600080fd5b600061465f888289016144c3565b9550506020614670888289016144c3565b945050604086013567ffffffffffffffff81111561468d57600080fd5b61469988828901614502565b935050606086013567ffffffffffffffff8111156146b657600080fd5b6146c288828901614502565b925050608086013567ffffffffffffffff8111156146df57600080fd5b6146eb8882890161456b565b9150509295509295909350565b600080600080600060a0868803121561471057600080fd5b600061471e888289016144c3565b955050602061472f888289016144c3565b9450506040614740888289016145bf565b9350506060614751888289016145bf565b925050608086013567ffffffffffffffff81111561476e57600080fd5b61477a8882890161456b565b9150509295509295909350565b6000806040838503121561479a57600080fd5b60006147a8858286016144c3565b92505060206147b98582860161452c565b9150509250929050565b600080604083850312156147d657600080fd5b60006147e4858286016144c3565b925050602083013567ffffffffffffffff81111561480157600080fd5b61480d85828601614595565b9150509250929050565b6000806040838503121561482a57600080fd5b6000614838858286016144c3565b9250506020614849858286016145bf565b9150509250929050565b6000806040838503121561486657600080fd5b600083013567ffffffffffffffff81111561488057600080fd5b61488c858286016144d8565b925050602083013567ffffffffffffffff8111156148a957600080fd5b6148b585828601614502565b9150509250929050565b6000602082840312156148d157600080fd5b60006148df84828501614541565b91505092915050565b6000602082840312156148fa57600080fd5b600061490884828501614556565b91505092915050565b600080600080600060a0868803121561492957600080fd5b600086013567ffffffffffffffff81111561494357600080fd5b61494f88828901614595565b9550506020614960888289016145bf565b9450506040614971888289016145bf565b935050606086013567ffffffffffffffff81111561498e57600080fd5b61499a88828901614595565b925050608086013567ffffffffffffffff8111156149b757600080fd5b6149c388828901614595565b9150509295509295909350565b6000602082840312156149e257600080fd5b60006149f0848285016145bf565b91505092915050565b60008060408385031215614a0c57600080fd5b6000614a1a858286016145bf565b9250506020614a2b858286016145bf565b9150509250929050565b6000614a418383614f34565b905092915050565b6000614a558383614ff2565b60208301905092915050565b614a6a816157f1565b82525050565b614a79816157f1565b82525050565b6000614a8a82615641565b614a948185615687565b935083602082028501614aa685615621565b8060005b85811015614ae25784840389528151614ac38582614a35565b9450614ace8361566d565b925060208a01995050600181019050614aaa565b50829750879550505050505092915050565b6000614aff8261564c565b614b098185615698565b9350614b1483615631565b8060005b83811015614b45578151614b2c8882614a49565b9750614b378361567a565b925050600181019050614b18565b5085935050505092915050565b614b5b81615803565b82525050565b614b6a81615803565b82525050565b6000614b7b82615657565b614b8581856156a9565b9350614b95818560208601615874565b614b9e81615a31565b840191505092915050565b6000614bb482615662565b614bbe81856156ba565b9350614bce818560208601615874565b614bd781615a31565b840191505092915050565b6000614bed82615662565b614bf781856156cb565b9350614c07818560208601615874565b614c1081615a31565b840191505092915050565b6000614c286034836156cb565b9150614c3382615a4f565b604082019050919050565b6000614c4b6028836156cb565b9150614c5682615a9e565b604082019050919050565b6000614c6e6014836156cb565b9150614c7982615aed565b602082019050919050565b6000614c91602b836156cb565b9150614c9c82615b16565b604082019050919050565b6000614cb46026836156cb565b9150614cbf82615b65565b604082019050919050565b6000614cd7601a836156cb565b9150614ce282615bb4565b602082019050919050565b6000614cfa6029836156cb565b9150614d0582615bdd565b604082019050919050565b6000614d1d6025836156cb565b9150614d2882615c2c565b604082019050919050565b6000614d406032836156cb565b9150614d4b82615c7b565b604082019050919050565b6000614d63600d836156cb565b9150614d6e82615cca565b602082019050919050565b6000614d86602a836156cb565b9150614d9182615cf3565b604082019050919050565b6000614da96020836156cb565b9150614db482615d42565b602082019050919050565b6000614dcc6014836156cb565b9150614dd782615d6b565b602082019050919050565b6000614def6029836156cb565b9150614dfa82615d94565b604082019050919050565b6000614e126029836156cb565b9150614e1d82615de3565b604082019050919050565b6000614e356028836156cb565b9150614e4082615e32565b604082019050919050565b6000614e586021836156cb565b9150614e6382615e81565b604082019050919050565b6000608083016000830151614e866000860182614a61565b5060208301518482036020860152614e9e8282614ba9565b9150506040830151614eb36040860182614ff2565b506060830151614ec66060860182614b52565b508091505092915050565b6000608083016000830151614ee96000860182614a61565b5060208301518482036020860152614f018282614ba9565b9150506040830151614f166040860182614ff2565b506060830151614f296060860182614b52565b508091505092915050565b600061010083016000830151614f4d6000860182614ff2565b5060208301518482036020860152614f658282614e6e565b91505060408301518482036040860152614f7f8282614ba9565b91505060608301518482036060860152614f998282614ba9565b9150506080830151614fae6080860182614ff2565b5060a0830151614fc160a0860182614ff2565b5060c0830151614fd460c0860182614ff2565b5060e0830151614fe760e0860182614ff2565b508091505092915050565b614ffb8161585b565b82525050565b61500a8161585b565b82525050565b60006020820190506150256000830184614a70565b92915050565b600060a0820190506150406000830188614a70565b61504d6020830187614a70565b818103604083015261505f8186614af4565b905081810360608301526150738185614af4565b905081810360808301526150878184614b70565b90509695505050505050565b600060a0820190506150a86000830188614a70565b6150b56020830187614a70565b6150c26040830186615001565b6150cf6060830185615001565b81810360808301526150e18184614b70565b90509695505050505050565b60006080820190506151026000830187614a70565b81810360208301526151148186614be2565b90506151236040830185615001565b6151306060830184614b61565b95945050505050565b600060a08201905061514e6000830188614a70565b81810360208301526151608187614be2565b905061516f6040830186615001565b61517c6060830185615001565b6151896080830184615001565b9695505050505050565b600060208201905081810360008301526151ad8184614a7f565b905092915050565b600060208201905081810360008301526151cf8184614af4565b905092915050565b600060408201905081810360008301526151f18185614af4565b905081810360208301526152058184614af4565b90509392505050565b60006020820190506152236000830184614b61565b92915050565b600060208201905081810360008301526152438184614be2565b905092915050565b6000602082019050818103600083015261526481614c1b565b9050919050565b6000602082019050818103600083015261528481614c3e565b9050919050565b600060208201905081810360008301526152a481614c61565b9050919050565b600060208201905081810360008301526152c481614c84565b9050919050565b600060208201905081810360008301526152e481614ca7565b9050919050565b6000602082019050818103600083015261530481614cca565b9050919050565b6000602082019050818103600083015261532481614ced565b9050919050565b6000602082019050818103600083015261534481614d10565b9050919050565b6000602082019050818103600083015261536481614d33565b9050919050565b6000602082019050818103600083015261538481614d56565b9050919050565b600060208201905081810360008301526153a481614d79565b9050919050565b600060208201905081810360008301526153c481614d9c565b9050919050565b600060208201905081810360008301526153e481614dbf565b9050919050565b6000602082019050818103600083015261540481614de2565b9050919050565b6000602082019050818103600083015261542481614e05565b9050919050565b6000602082019050818103600083015261544481614e28565b9050919050565b6000602082019050818103600083015261546481614e4b565b9050919050565b60006020820190506154806000830184615001565b92915050565b60006101008201905061549c600083018b615001565b81810360208301526154ae818a614ed1565b905081810360408301526154c28189614be2565b905081810360608301526154d68188614be2565b90506154e56080830187615001565b6154f260a0830186615001565b6154ff60c0830185615001565b61550c60e0830184615001565b9998505050505050505050565b600060408201905061552e6000830185615001565b61553b6020830184615001565b9392505050565b600061554c61555d565b905061555882826158d9565b919050565b6000604051905090565b600067ffffffffffffffff821115615582576155816159e0565b5b602082029050602081019050919050565b600067ffffffffffffffff8211156155ae576155ad6159e0565b5b602082029050602081019050919050565b600067ffffffffffffffff8211156155da576155d96159e0565b5b6155e382615a31565b9050602081019050919050565b600067ffffffffffffffff82111561560b5761560a6159e0565b5b61561482615a31565b9050602081019050919050565b6000819050602082019050919050565b6000819050602082019050919050565b600081519050919050565b600081519050919050565b600081519050919050565b600081519050919050565b6000602082019050919050565b6000602082019050919050565b600082825260208201905092915050565b600082825260208201905092915050565b600082825260208201905092915050565b600082825260208201905092915050565b600082825260208201905092915050565b60006156e78261585b565b91506156f28361585b565b9250827fffffffffffffffffffffffffffffffffffffffffffffffffffffffffffffffff0382111561572757615726615953565b5b828201905092915050565b600061573d8261585b565b91506157488361585b565b92508261575857615757615982565b5b828204905092915050565b600061576e8261585b565b91506157798361585b565b9250817fffffffffffffffffffffffffffffffffffffffffffffffffffffffffffffffff04831182151516156157b2576157b1615953565b5b828202905092915050565b60006157c88261585b565b91506157d38361585b565b9250828210156157e6576157e5615953565b5b828203905092915050565b60006157fc8261583b565b9050919050565b60008115159050919050565b60007fffffffff0000000000000000000000000000000000000000000000000000000082169050919050565b600073ffffffffffffffffffffffffffffffffffffffff82169050919050565b6000819050919050565b82818337600083830152505050565b60005b83811015615892578082015181840152602081019050615877565b838111156158a1576000848401525b50505050565b600060028204905060018216806158bf57607f821691505b602082108114156158d3576158d26159b1565b5b50919050565b6158e282615a31565b810181811067ffffffffffffffff82111715615901576159006159e0565b5b80604052505050565b60006159158261585b565b91507fffffffffffffffffffffffffffffffffffffffffffffffffffffffffffffffff82141561594857615947615953565b5b600182019050919050565b7f4e487b7100000000000000000000000000000000000000000000000000000000600052601160045260246000fd5b7f4e487b7100000000000000000000000000000000000000000000000000000000600052601260045260246000fd5b7f4e487b7100000000000000000000000000000000000000000000000000000000600052602260045260246000fd5b7f4e487b7100000000000000000000000000000000000000000000000000000000600052604160045260246000fd5b600060033d1115615a2e5760046000803e615a2b600051615a42565b90505b90565b6000601f19601f8301169050919050565b60008160e01c9050919050565b7f455243313135353a207472616e7366657220746f206e6f6e204552433131353560008201527f526563656976657220696d706c656d656e746572000000000000000000000000602082015250565b7f455243313135353a204552433131353552656365697665722072656a6563746560008201527f6420746f6b656e73000000000000000000000000000000000000000000000000602082015250565b7f546f6b656e73206e6f7420617661696c61626c65000000000000000000000000600082015250565b7f455243313135353a2062616c616e636520717565727920666f7220746865207a60008201527f65726f2061646472657373000000000000000000000000000000000000000000602082015250565b7f4f776e61626c653a206e6577206f776e657220697320746865207a65726f206160008201527f6464726573730000000000000000000000000000000000000000000000000000602082015250565b7f6e6f7420657175616c20746f20746f6b656e27732076616c7565000000000000600082015250565b7f455243313135353a2063616c6c6572206973206e6f74206f776e6572206e6f7260008201527f20617070726f7665640000000000000000000000000000000000000000000000602082015250565b7f455243313135353a207472616e7366657220746f20746865207a65726f20616460008201527f6472657373000000000000000000000000000000000000000000000000000000602082015250565b7f455243313135353a207472616e736665722063616c6c6572206973206e6f742060008201527f6f776e6572206e6f7220617070726f7665640000000000000000000000000000602082015250565b7f626520612063726561746f722100000000000000000000000000000000000000600082015250565b7f455243313135353a20696e73756666696369656e742062616c616e636520666f60008201527f72207472616e7366657200000000000000000000000000000000000000000000602082015250565b7f4f776e61626c653a2063616c6c6572206973206e6f7420746865206f776e6572600082015250565b7f6d6178206f66203620546f6b656e73206f6e6c79000000000000000000000000600082015250565b7f455243313135353a2073657474696e6720617070726f76616c2073746174757360008201527f20666f722073656c660000000000000000000000000000000000000000000000602082015250565b7f455243313135353a206163636f756e747320616e6420696473206c656e67746860008201527f206d69736d617463680000000000000000000000000000000000000000000000602082015250565b7f455243313135353a2069647320616e6420616d6f756e7473206c656e6774682060008201527f6d69736d61746368000000000000000000000000000000000000000000000000602082015250565b7f455243313135353a206d696e7420746f20746865207a65726f2061646472657360008201527f7300000000000000000000000000000000000000000000000000000000000000602082015250565b600060443d1015615ee057615f63565b615ee861555d565b60043d036004823e80513d602482011167ffffffffffffffff82111715615f10575050615f63565b808201805167ffffffffffffffff811115615f2e5750505050615f63565b80602083010160043d038501811115615f4b575050505050615f63565b615f5a826020018501866158d9565b82955050505050505b90565b615f6f816157f1565b8114615f7a57600080fd5b50565b615f8681615803565b8114615f9157600080fd5b50565b615f9d8161580f565b8114615fa857600080fd5b50565b615fb48161585b565b8114615fbf57600080fd5b5056fea2646970667358221220cda59eedcd925ed009318e3e468757ef9c5112ae1883a222c47b82e05102769864736f6c63430008030033",
  "linkReferences": {},
  "deployedLinkReferences": {}
}