{
  "_format": "hh-sol-artifact-1",
  "contractName": "NFTMarket",
  "sourceName": "contracts/Market.sol",
  "abi": [
    {
      "inputs": [],
      "stateMutability": "nonpayable",
      "type": "constructor"
    },
    {
      "anonymous": false,
      "inputs": [
        {
          "indexed": true,
          "internalType": "uint256",
          "name": "itemId",
          "type": "uint256"
        },
        {
          "indexed": true,
          "internalType": "address",
          "name": "nftContract",
          "type": "address"
        },
        {
          "indexed": true,
          "internalType": "uint256",
          "name": "tokenId",
          "type": "uint256"
        },
        {
          "indexed": false,
          "internalType": "address",
          "name": "seller",
          "type": "address"
        },
        {
          "indexed": false,
          "internalType": "address",
          "name": "owner",
          "type": "address"
        },
        {
          "indexed": false,
          "internalType": "uint256",
          "name": "price",
          "type": "uint256"
        },
        {
          "indexed": false,
          "internalType": "bool",
          "name": "sold",
          "type": "bool"
        }
      ],
      "name": "MarketItemCreated",
      "type": "event"
    },
    {
      "inputs": [
        {
          "internalType": "address",
          "name": "nftContract",
          "type": "address"
        },
        {
          "internalType": "uint256",
          "name": "tokenId",
          "type": "uint256"
        },
        {
          "internalType": "uint256",
          "name": "price",
          "type": "uint256"
        }
      ],
      "name": "createMarketItem",
      "outputs": [],
      "stateMutability": "payable",
      "type": "function"
    },
    {
      "inputs": [
        {
          "internalType": "address",
          "name": "nftContract",
          "type": "address"
        },
        {
          "internalType": "uint256",
          "name": "itemId",
          "type": "uint256"
        }
      ],
      "name": "createMarketSale",
      "outputs": [],
      "stateMutability": "payable",
      "type": "function"
    },
    {
      "inputs": [],
      "name": "fetchItemsCreated",
      "outputs": [
        {
          "components": [
            {
              "internalType": "uint256",
              "name": "itemId",
              "type": "uint256"
            },
            {
              "internalType": "address",
              "name": "nftContract",
              "type": "address"
            },
            {
              "internalType": "uint256",
              "name": "tokenId",
              "type": "uint256"
            },
            {
              "internalType": "address payable",
              "name": "seller",
              "type": "address"
            },
            {
              "internalType": "address payable",
              "name": "owner",
              "type": "address"
            },
            {
              "internalType": "uint256",
              "name": "price",
              "type": "uint256"
            },
            {
              "internalType": "bool",
              "name": "sold",
              "type": "bool"
            }
          ],
          "internalType": "struct NFTMarket.MarketItem[]",
          "name": "",
          "type": "tuple[]"
        }
      ],
      "stateMutability": "view",
      "type": "function"
    },
    {
      "inputs": [],
      "name": "fetchMarketItems",
      "outputs": [
        {
          "components": [
            {
              "internalType": "uint256",
              "name": "itemId",
              "type": "uint256"
            },
            {
              "internalType": "address",
              "name": "nftContract",
              "type": "address"
            },
            {
              "internalType": "uint256",
              "name": "tokenId",
              "type": "uint256"
            },
            {
              "internalType": "address payable",
              "name": "seller",
              "type": "address"
            },
            {
              "internalType": "address payable",
              "name": "owner",
              "type": "address"
            },
            {
              "internalType": "uint256",
              "name": "price",
              "type": "uint256"
            },
            {
              "internalType": "bool",
              "name": "sold",
              "type": "bool"
            }
          ],
          "internalType": "struct NFTMarket.MarketItem[]",
          "name": "",
          "type": "tuple[]"
        }
      ],
      "stateMutability": "view",
      "type": "function"
    },
    {
      "inputs": [],
      "name": "fetchMyNFTs",
      "outputs": [
        {
          "components": [
            {
              "internalType": "uint256",
              "name": "itemId",
              "type": "uint256"
            },
            {
              "internalType": "address",
              "name": "nftContract",
              "type": "address"
            },
            {
              "internalType": "uint256",
              "name": "tokenId",
              "type": "uint256"
            },
            {
              "internalType": "address payable",
              "name": "seller",
              "type": "address"
            },
            {
              "internalType": "address payable",
              "name": "owner",
              "type": "address"
            },
            {
              "internalType": "uint256",
              "name": "price",
              "type": "uint256"
            },
            {
              "internalType": "bool",
              "name": "sold",
              "type": "bool"
            }
          ],
          "internalType": "struct NFTMarket.MarketItem[]",
          "name": "",
          "type": "tuple[]"
        }
      ],
      "stateMutability": "view",
      "type": "function"
    }
  ],
  "bytecode": "0x608060405234801561001057600080fd5b50600160008190555033600360006101000a81548173ffffffffffffffffffffffffffffffffffffffff021916908373ffffffffffffffffffffffffffffffffffffffff160217905550611799806100696000396000f3fe60806040526004361061004a5760003560e01c80630f08efe01461004f578063202e37401461007a57806358eb2df5146100a5578063c23b139e146100c1578063f064c32e146100dd575b600080fd5b34801561005b57600080fd5b50610064610108565b604051610071919061146c565b60405180910390f35b34801561008657600080fd5b5061008f61041e565b60405161009c919061146c565b60405180910390f35b6100bf60048036038101906100ba91906111cb565b6107b8565b005b6100db60048036038101906100d6919061118f565b610ad8565b005b3480156100e957600080fd5b506100f2610d26565b6040516100ff919061146c565b60405180910390f35b6060600061011660016110c0565b9050600061012460026110c0565b61012e60016110c0565b610138919061158e565b90506000808267ffffffffffffffff81111561017d577f4e487b7100000000000000000000000000000000000000000000000000000000600052604160045260246000fd5b6040519080825280602002602001820160405280156101b657816020015b6101a36110e4565b81526020019060019003908161019b5790505b50905060005b8481101561041357600073ffffffffffffffffffffffffffffffffffffffff16600460006001846101ed9190611538565b815260200190815260200160002060040160009054906101000a900473ffffffffffffffffffffffffffffffffffffffff1673ffffffffffffffffffffffffffffffffffffffff16141561040057600060018261024a9190611538565b90506000600460008381526020019081526020016000209050806040518060e0016040529081600082015481526020016001820160009054906101000a900473ffffffffffffffffffffffffffffffffffffffff1673ffffffffffffffffffffffffffffffffffffffff1673ffffffffffffffffffffffffffffffffffffffff168152602001600282015481526020016003820160009054906101000a900473ffffffffffffffffffffffffffffffffffffffff1673ffffffffffffffffffffffffffffffffffffffff1673ffffffffffffffffffffffffffffffffffffffff1681526020016004820160009054906101000a900473ffffffffffffffffffffffffffffffffffffffff1673ffffffffffffffffffffffffffffffffffffffff1673ffffffffffffffffffffffffffffffffffffffff168152602001600582015481526020016006820160009054906101000a900460ff1615151515815250508486815181106103e3577f4e487b7100000000000000000000000000000000000000000000000000000000600052603260045260246000fd5b60200260200101819052506001856103fb9190611538565b945050505b808061040b9061161c565b9150506101bc565b508094505050505090565b6060600061042c60016110c0565b905060008060005b838110156104d5573373ffffffffffffffffffffffffffffffffffffffff16600460006001846104649190611538565b815260200190815260200160002060040160009054906101000a900473ffffffffffffffffffffffffffffffffffffffff1673ffffffffffffffffffffffffffffffffffffffff1614156104c2576001836104bf9190611538565b92505b80806104cd9061161c565b915050610434565b5060008267ffffffffffffffff811115610518577f4e487b7100000000000000000000000000000000000000000000000000000000600052604160045260246000fd5b60405190808252806020026020018201604052801561055157816020015b61053e6110e4565b8152602001906001900390816105365790505b50905060005b848110156107ad573373ffffffffffffffffffffffffffffffffffffffff16600460006001846105879190611538565b815260200190815260200160002060040160009054906101000a900473ffffffffffffffffffffffffffffffffffffffff1673ffffffffffffffffffffffffffffffffffffffff16141561079a5760006001826105e49190611538565b90506000600460008381526020019081526020016000209050806040518060e0016040529081600082015481526020016001820160009054906101000a900473ffffffffffffffffffffffffffffffffffffffff1673ffffffffffffffffffffffffffffffffffffffff1673ffffffffffffffffffffffffffffffffffffffff168152602001600282015481526020016003820160009054906101000a900473ffffffffffffffffffffffffffffffffffffffff1673ffffffffffffffffffffffffffffffffffffffff1673ffffffffffffffffffffffffffffffffffffffff1681526020016004820160009054906101000a900473ffffffffffffffffffffffffffffffffffffffff1673ffffffffffffffffffffffffffffffffffffffff1673ffffffffffffffffffffffffffffffffffffffff168152602001600582015481526020016006820160009054906101000a900460ff16151515158152505084868151811061077d577f4e487b7100000000000000000000000000000000000000000000000000000000600052603260045260246000fd5b60200260200101819052506001856107959190611538565b945050505b80806107a59061161c565b915050610557565b508094505050505090565b600260005414156107fe576040517f08c379a00000000000000000000000000000000000000000000000000000000081526004016107f5906114ae565b60405180910390fd5b600260008190555060008111610849576040517f08c379a0000000000000000000000000000000000000000000000000000000008152600401610840906114ce565b60405180910390fd5b61085360016110ce565b600061085f60016110c0565b90506040518060e001604052808281526020018573ffffffffffffffffffffffffffffffffffffffff1681526020018481526020013373ffffffffffffffffffffffffffffffffffffffff168152602001600073ffffffffffffffffffffffffffffffffffffffff16815260200183815260200160001515815250600460008381526020019081526020016000206000820151816000015560208201518160010160006101000a81548173ffffffffffffffffffffffffffffffffffffffff021916908373ffffffffffffffffffffffffffffffffffffffff1602179055506040820151816002015560608201518160030160006101000a81548173ffffffffffffffffffffffffffffffffffffffff021916908373ffffffffffffffffffffffffffffffffffffffff16021790555060808201518160040160006101000a81548173ffffffffffffffffffffffffffffffffffffffff021916908373ffffffffffffffffffffffffffffffffffffffff16021790555060a0820151816005015560c08201518160060160006101000a81548160ff0219169083151502179055509050508373ffffffffffffffffffffffffffffffffffffffff166323b872dd3330866040518463ffffffff1660e01b8152600401610a40939291906113f0565b600060405180830381600087803b158015610a5a57600080fd5b505af1158015610a6e573d6000803e3d6000fd5b50505050828473ffffffffffffffffffffffffffffffffffffffff16827f045dfa01dcba2b36aba1d3dc4a874f4b0c5d2fbeb8d2c4b34a7d88c8d8f929d1336000876000604051610ac29493929190611427565b60405180910390a4506001600081905550505050565b60026000541415610b1e576040517f08c379a0000000000000000000000000000000000000000000000000000000008152600401610b15906114ae565b60405180910390fd5b6002600081905550600060046000838152602001908152602001600020600501549050600060046000848152602001908152602001600020600201549050813414610b9e576040517f08c379a0000000000000000000000000000000000000000000000000000000008152600401610b959061148e565b60405180910390fd5b6004600084815260200190815260200160002060030160009054906101000a900473ffffffffffffffffffffffffffffffffffffffff1673ffffffffffffffffffffffffffffffffffffffff166108fc349081150290604051600060405180830381858888f19350505050158015610c1a573d6000803e3d6000fd5b508373ffffffffffffffffffffffffffffffffffffffff166323b872dd3033846040518463ffffffff1660e01b8152600401610c58939291906113f0565b600060405180830381600087803b158015610c7257600080fd5b505af1158015610c86573d6000803e3d6000fd5b50505050336004600085815260200190815260200160002060040160006101000a81548173ffffffffffffffffffffffffffffffffffffffff021916908373ffffffffffffffffffffffffffffffffffffffff16021790555060016004600085815260200190815260200160002060060160006101000a81548160ff021916908315150217905550610d1860026110ce565b505060016000819055505050565b60606000610d3460016110c0565b905060008060005b83811015610ddd573373ffffffffffffffffffffffffffffffffffffffff1660046000600184610d6c9190611538565b815260200190815260200160002060030160009054906101000a900473ffffffffffffffffffffffffffffffffffffffff1673ffffffffffffffffffffffffffffffffffffffff161415610dca57600183610dc79190611538565b92505b8080610dd59061161c565b915050610d3c565b5060008267ffffffffffffffff811115610e20577f4e487b7100000000000000000000000000000000000000000000000000000000600052604160045260246000fd5b604051908082528060200260200182016040528015610e5957816020015b610e466110e4565b815260200190600190039081610e3e5790505b50905060005b848110156110b5573373ffffffffffffffffffffffffffffffffffffffff1660046000600184610e8f9190611538565b815260200190815260200160002060030160009054906101000a900473ffffffffffffffffffffffffffffffffffffffff1673ffffffffffffffffffffffffffffffffffffffff1614156110a2576000600182610eec9190611538565b90506000600460008381526020019081526020016000209050806040518060e0016040529081600082015481526020016001820160009054906101000a900473ffffffffffffffffffffffffffffffffffffffff1673ffffffffffffffffffffffffffffffffffffffff1673ffffffffffffffffffffffffffffffffffffffff168152602001600282015481526020016003820160009054906101000a900473ffffffffffffffffffffffffffffffffffffffff1673ffffffffffffffffffffffffffffffffffffffff1673ffffffffffffffffffffffffffffffffffffffff1681526020016004820160009054906101000a900473ffffffffffffffffffffffffffffffffffffffff1673ffffffffffffffffffffffffffffffffffffffff1673ffffffffffffffffffffffffffffffffffffffff168152602001600582015481526020016006820160009054906101000a900460ff161515151581525050848681518110611085577f4e487b7100000000000000000000000000000000000000000000000000000000600052603260045260246000fd5b602002602001018190525060018561109d9190611538565b945050505b80806110ad9061161c565b915050610e5f565b508094505050505090565b600081600001549050919050565b6001816000016000828254019250508190555050565b6040518060e0016040528060008152602001600073ffffffffffffffffffffffffffffffffffffffff16815260200160008152602001600073ffffffffffffffffffffffffffffffffffffffff168152602001600073ffffffffffffffffffffffffffffffffffffffff168152602001600081526020016000151581525090565b60008135905061117481611735565b92915050565b6000813590506111898161174c565b92915050565b600080604083850312156111a257600080fd5b60006111b085828601611165565b92505060206111c18582860161117a565b9150509250929050565b6000806000606084860312156111e057600080fd5b60006111ee86828701611165565b93505060206111ff8682870161117a565b92505060406112108682870161117a565b9150509250925092565b60006112268383611344565b60e08301905092915050565b61123b816115d4565b82525050565b61124a816115c2565b82525050565b611259816115c2565b82525050565b600061126a826114fe565b6112748185611516565b935061127f836114ee565b8060005b838110156112b0578151611297888261121a565b97506112a283611509565b925050600181019050611283565b5085935050505092915050565b6112c6816115e6565b82525050565b6112d5816115e6565b82525050565b60006112e8604083611527565b91506112f382611694565b604082019050919050565b600061130b601f83611527565b9150611316826116e3565b602082019050919050565b600061132e601c83611527565b91506113398261170c565b602082019050919050565b60e08201600082015161135a60008501826113d2565b50602082015161136d6020850182611241565b50604082015161138060408501826113d2565b5060608201516113936060850182611232565b5060808201516113a66080850182611232565b5060a08201516113b960a08501826113d2565b5060c08201516113cc60c08501826112bd565b50505050565b6113db81611612565b82525050565b6113ea81611612565b82525050565b60006060820190506114056000830186611250565b6114126020830185611250565b61141f60408301846113e1565b949350505050565b600060808201905061143c6000830187611250565b6114496020830186611250565b61145660408301856113e1565b61146360608301846112cc565b95945050505050565b60006020820190508181036000830152611486818461125f565b905092915050565b600060208201905081810360008301526114a7816112db565b9050919050565b600060208201905081810360008301526114c7816112fe565b9050919050565b600060208201905081810360008301526114e781611321565b9050919050565b6000819050602082019050919050565b600081519050919050565b6000602082019050919050565b600082825260208201905092915050565b600082825260208201905092915050565b600061154382611612565b915061154e83611612565b9250827fffffffffffffffffffffffffffffffffffffffffffffffffffffffffffffffff0382111561158357611582611665565b5b828201905092915050565b600061159982611612565b91506115a483611612565b9250828210156115b7576115b6611665565b5b828203905092915050565b60006115cd826115f2565b9050919050565b60006115df826115f2565b9050919050565b60008115159050919050565b600073ffffffffffffffffffffffffffffffffffffffff82169050919050565b6000819050919050565b600061162782611612565b91507fffffffffffffffffffffffffffffffffffffffffffffffffffffffffffffffff82141561165a57611659611665565b5b600182019050919050565b7f4e487b7100000000000000000000000000000000000000000000000000000000600052601160045260246000fd5b7f506c65617365207375626d6974207468652061736b696e67207072696365206960008201527f6e206f7264657220746f20636f6d706c65746520746865207075726368617365602082015250565b7f5265656e7472616e637947756172643a207265656e7472616e742063616c6c00600082015250565b7f5072696365206d757374206265206174206c6561737420312077656900000000600082015250565b61173e816115c2565b811461174957600080fd5b50565b61175581611612565b811461176057600080fd5b5056fea2646970667358221220135bcb04b1d60a24df9306439bc3581b9e60ea2f44e8cd717576703f3494543964736f6c63430008030033",
  "linkReferences": {},
  "deployedLinkReferences": {}
}